S0100000506F73744C6162352E737265632A
S11300000C9434000C9446000C9446000C94460066
S11300100C9446000C9446000C9446000C94460044
S11300200C9446000C9446000C9446000C94460034
S11300300C9446000C9446000C9446000C94460024
S11300400C94B7000C9446000C9446000C944600A3
S11300500C9446000C94F8000C9446000C94460052
S11300600C9446000C94460011241FBECFEFD8E038
S1130070DEBFCDBF21E0A0E0B1E001C01D92A530FC
S1130080B207E1F70E9461000C9423010C94000074
S1130090ECE7F0E0108280818064808380818F7738
S11300A08083808180628083EAE7F0E0108280812F
S11300B0806880838081886080838081876080837A
S11300C00895F89484B18A6084B98AB180618AB948
S11300D0A0E8B0E01C92E1E8F0E010828C91806826
S11300E08C938C9181608C938081886080838081E3
S11300F085608083E0EBF0E01082A1EBB0E01C921D
S11301008081806880838081836080838C91876014
S11301108C930E9448007894809100018F5F8093B3
S11301200001809104012BEA829F812D1124869580
S1130130869590E0909389008093880080910301D4
S1130140829F812D1124869586958093B30080919A
S11301500001811104C08BB180618BB9DDCF909116
S113016002018913D9CF8BB18F7E8BB9D5CF1F9262
S11301700F920FB60F9211248F93EF93FF938091F8
S1130180010181110CC081E080930101ECE7F0E0F2
S11301908081887F808380818660808317C08130DE
S11301A061F482E080930101ECE7F0E08081887FD4
S11301B0808380818760808309C0823039F4109203
S11301C00101ECE7F0E08081887F8083EAE7F0E0DA
S11301D080818064808384E686BD85B3816085BB2D
S11301E0FF91EF918F910F900FBE0F901F90189574
S11301F01F920F920FB60F9211248F93EF93FF93D8
S113020080910101811105C08091790080930401DE
S11302100DC0813029F4809179008093030106C0D8
S1130220823021F48091790080930201EAE7F0E0C2
S1130230808180618083FF91EF918F910F900FBE39
S10D02400F901F901895F894FFCF5B
S9030000FC
