:100000000C9434000C9446000C9446000C9463004D
:100010000C9446000C9446000C9446000C94460048
:100020000C9446000C9446000C9446000C94460038
:100030000C9446000C9446000C9446000C94460028
:100040000C9446000C9446000C9446000C94460018
:100050000C9446000C9446000C9446000C94460008
:100060000C9446000C94460011241FBECFEFD8E03C
:10007000DEBFCDBF21E0A0E0B1E001C01D92A13004
:10008000B207E1F70E9448000C9483000C94000032
:10009000F89484B18E7F84B985B1816085B984B1CB
:1000A0008D7F84B985B1826085B98FEF8AB9EBE61F
:1000B000F0E0808183608083E8E6F0E08081816009
:1000C00080837894FFCF1F920F920FB60F92112466
:1000D0008F93189908C0809100018F3F21F08F5FA6
:1000E000809300018BB9199908C080910001882381
:1000F00021F08150809300018BB98F910F900FBE3A
:0A0100000F901F901895F894FFCFA0
:00000001FF
