:100000000C9454000C9471000C9471000C94C30176
:100010000C9471000C9471000C9471000C9471009C
:100020000C9471000C9471000C9471000C9471008C
:100030000C9471000C9471000C9471000C9471007C
:100040000C9471000C9471000C9471000C9471006C
:100050000C9471000C94A5010C9471000C94710027
:100060000C9471000C947100DF00E300E700EB00DA
:10007000EF00F300F700FB00FF00030107010B0195
:100080000F01130117011B01450149014D015101E8
:10009000550159015D016101650169016D01710140
:1000A000750179017D01810111241FBECFEFD8E0D8
:1000B000DEBFCDBF11E0A0E0B1E0E6EDF3E002C0AD
:1000C00005900D92A031B107D9F721E0A0E1B1E090
:1000D00001C01D92A731B207E1F70E94A1000C9464
:1000E000E9010C940000ECE7F0E087E08083808178
:1000F0008064808380818F77808380818062808329
:10010000EAE7F0E0108280818068808380818860E7
:100110008083808187608083EEE7F0E0808181606A
:1001200080830895282F22952F7030E0309314019A
:10013000209313018F7090E0909311018093100130
:100140000895F8940E9473009FEF97B918B884B18E
:100150008E7F84B985B1816085B984B18D7F84B982
:1001600085B1826085B984B18C6384B99AB9EBE6B4
:10017000F0E0808183608083E8E6F0E08081816048
:1001800080837894EAE7F0E08081806480838091C6
:1001900015010E949200E0911001F0911101E050D0
:1001A000FF4F808188B9E0911001F0911101E03199
:1001B000F10508F043C0EC5CFF4F0C94E30185B1FE
:1001C0008F7D85B93BC085B18F7D85B937C085B13D
:1001D000806285B933C085B1806285B92FC085B191
:1001E000806285B92BC085B1806285B927C085B191
:1001F000806285B923C085B18F7D85B91FC085B167
:10020000806285B91BC085B1806285B917C085B190
:10021000806285B913C085B1806285B90FC085B190
:100220008F7D85B90BC085B1806285B907C085B166
:10023000806285B903C085B1806285B985B1886067
:1002400085B985B18B7F85B98FE79EE30197F1F77B
:1002500000C0000085B1877F85B9809115010E949B
:100260009200E0911301F0911401E050FF4F808162
:1002700088B9E0911301F0911401E031F10508F023
:1002800043C0EC5BFF4F0C94E30185B18F7D85B9D2
:100290003BC085B18F7D85B937C085B1806285B996
:1002A00033C085B1806285B92FC085B1806285B9C0
:1002B0002BC085B1806285B927C085B1806285B9C0
:1002C00023C085B18F7D85B91FC085B1806285B996
:1002D0001BC085B1806285B917C085B1806285B9C0
:1002E00013C085B1806285B90FC085B18F7D85B996
:1002F0000BC085B1806285B907C085B1806285B9C0
:1003000003C085B1806285B985B1846085B985B146
:10031000877F85B98FE79EE30197F1F700C0000062
:1003200085B18B7F85B98091120190E020911501F4
:10033000309116018217930724F485B1806185B945
:1003400021CF85B18F7E85B91DCF1F920F920FB639
:100350000F9211248F939F93EF93FF9380917900D5
:1003600090E09093160180931501EAE7F0E0808118
:1003700080618083FF91EF919F918F910F900FBECD
:100380000F901F9018951F920F920FB60F92112485
:100390008F93189908C0809112018F3F21F08F5FD1
:1003A000809312018BB9199908C08091120188239A
:1003B00021F08150809312018BB98F910F900FBE65
:1003C0000F901F901895EE0FFF1F0590F491E02DF0
:0603D0000994F894FFCF30
:1003D6003F065B4F666D7D077F6F777C395E79716F
:00000001FF
