S014000043616D62696145737461646F2E7372656373
S11300000C9434000C9446000C9446000C94460066
S11300100C9446000C9448000C9446000C94460042
S11300200C9446000C9446000C9446000C94460034
S11300300C9446000C9446000C9446000C94460024
S11300400C9446000C9446000C9446000C94460014
S11300500C9446000C9446000C9446000C94460004
S11300600C9446000C94460011241FBECFEFD8E038
S1130070DEBFCDBF21E0A0E0B1E001C01D92A230FF
S1130080B207E1F70E946C000C94CB000C940000C2
S11300901F920F920FB60F9211248F939F934C9936
S11300A014C08091000190910101029754F4809151
S11300B00001909101010196909301018093000148
S11300C004C010920101109200019F918F910F9032
S11300D00FBE0F901F901895F8948AB18F7E8AB93D
S11300E08BB180618BB984B1806184B984B1816042
S11300F084B98AB180688AB9E8E6F0E080818460D6
S11301008083EDE6F0E08081806180837894809143
S1130110000190910101892B51F485B1806185B969
S113012085B18E7F85B98BB18F778BB9F0CF8091F4
S1130130000190910101019751F48BB18F778BB934
S113014085B18F7E85B985B1816085B9E0CF809115
S1130150000190910101029751F485B18F7E85B918
S113016085B18E7F85B98BB180688BB9D0CF8091F2
S1130170000190910101039751F685B18F7E85B9F5
S113018085B18E7F85B98BB18F778BB910920101C0
S10D019010920001BCCFF894FFCFD9
S9030000FC
