:100000000C9434000C9446000C9446000C9446006A
:100010000C9446000C9446000C9446000C94460048
:100020000C9446000C9446000C9446000C949600E8
:100030000C9446000C948A000C9446000C944600E4
:100040000C9446000C9446000C9446000C94460018
:100050000C9446000C9446000C9446000C94460008
:100060000C9446000C94460011241FBECFEFD8E03C
:10007000DEBFCDBF21E0A0E0B1E001C01D92A13004
:10008000B207E1F70E9448000C94F0020C940000C3
:10009000F8940E94A00064EB70E080E090E00E9481
:1000A000B6007894C0E0D0E00FC064EB70E0CE0101
:1000B0000E94B6002FEF83EF91E0215080409040E6
:1000C000E1F700C000002196C53BD10570F3C4EBF9
:1000D000D0E064EB70E0CE010E94B6002FEF83EF1A
:1000E00091E0215080409040E1F700C0000021974E
:1000F000F0CF9C0181E0809300019091000191116B
:10010000FCCF1092890091E0232B09F490E09093AA
:10011000880008951F920F920FB60F92112410922B
:1001200000010F900FBE0F901F9018951F920F9215
:100130000FB60F9211240F900FBE0F901F901895BD
:1001400084B1826084B983E080936F00109287004D
:1001500081E080938600109289008093880082E875
:10016000809380008AE1809381000895CF92DF928E
:10017000EF92FF92CF93DF93EB01BC0180E090E020
:100180000E94F5016B017C01BE0180E090E00E94BD
:10019000F5019B01AC01C701B6010E94540120E0AA
:1001A00030E84BE355E40E94830220E030EE49EF53
:1001B00054E40E94E8000E94C601CB010E9479002D
:1001C000DF91CF91FF90EF90DF90CF90089550583E
:1001D000BB27AA270E94FF000C9449020E943B0201
:1001E00038F00E94420220F039F49F3F19F426F4BF
:1001F0000C9438020EF4E095E7FB0C943202E92FE0
:100200000E945A0258F3BA176207730784079507CA
:1002100020F079F4A6F50C947C020EF4E0950B2EF8
:10022000BA2FA02D0B01B90190010C01CA01A00148
:100230001124FF27591B99F0593F50F4503E68F1A3
:100240001A16F040A22F232F342F4427585FF3CFE4
:10025000469537952795A795F0405395C9F77EF4B5
:100260001F16BA0B620B730B840BBAF09150A1F0FE
:10027000FF0FBB1F661F771F881FC2F70EC0BA0F84
:10028000621F731F841F48F4879577956795B7950C
:10029000F7959E3F08F0B0CF9395880F08F0992707
:1002A000EE0F9795879508950E9468010C94490276
:1002B0000E94420258F00E943B0240F029F45F3F46
:1002C00029F00C94320251110C947D020C943802E6
:1002D0000E945A0268F39923B1F3552391F3951BB9
:1002E000550BBB27AA2762177307840738F09F5F57
:1002F0005F4F220F331F441FAA1FA9F335D00E2EC4
:100300003AF0E0E832D091505040E695001CCAF730
:100310002BD0FE2F29D0660F771F881FBB1F2617F3
:1003200037074807AB07B0E809F0BB0B802DBF01CA
:10033000FF2793585F4F3AF09E3F510578F00C9499
:1003400032020C947D025F3FE4F3983ED4F386952D
:1003500077956795B795F7959F5FC9F7880F911DBA
:100360009695879597F90895E1E0660F771F881FA6
:10037000BB1F621773078407BA0720F0621B730B59
:10038000840BBA0BEE1F88F7E09508950E94620275
:1003900088F09F5798F0B92F9927B751B0F0E1F046
:1003A000660F771F881F991F1AF0BA95C9F714C0F6
:1003B000B13091F00E947C02B1E008950C947C026F
:1003C000672F782F8827B85F39F0B93FCCF386952F
:1003D00077956795B395D9F73EF49095809570958C
:1003E00061957F4F8F4F9F4F0895E89409C097FB09
:1003F0003EF490958095709561957F4F8F4F9F4FFC
:100400009923A9F0F92F96E9BB279395F69587953F
:1004100077956795B795F111F8CFFAF4BB0F11F402
:1004200060FF1BC06F5F7F4F8F4F9F4F16C08823A9
:1004300011F096E911C0772321F09EE8872F762FDF
:1004400005C0662371F096E8862F70E060E02AF020
:100450009A95660F771F881FDAF7880F969587950C
:1004600097F9089597F99F6780E870E060E0089534
:100470009FEF80EC089500240A94161617061806BC
:100480000906089500240A94121613061406050698
:100490000895092E0394000C11F4882352F0BB0F29
:1004A00040F4BF2B11F460FF04C06F5F7F4F8F4F8C
:1004B0009F4F089557FD9058440F551F59F05F3FC7
:1004C00071F04795880F97FB991F61F09F3F79F076
:1004D00087950895121613061406551FF2CF4695F8
:1004E000F1DF08C0161617061806991FF1CF86957A
:1004F0007105610508940895E894BB27662777275E
:10050000CB0197F908950E9496020C9449020E942B
:100510003B0238F00E94420220F0952311F00C9427
:1005200032020C94380211240C947D020E945A026B
:1005300070F3959FC1F3950F50E0551F629FF00136
:10054000729FBB27F00DB11D639FAA27F00DB11D4F
:10055000AA1F649F6627B00DA11D661F829F2227D8
:10056000B00DA11D621F739FB00DA11D621F839F5F
:10057000A00D611D221F749F3327A00D611D231F35
:10058000849F600D211D822F762F6A2F11249F5783
:1005900050409AF0F1F088234AF0EE0FFF1FBB1F86
:1005A000661F771F881F91505040A9F79E3F510545
:1005B00080F00C9432020C947D025F3FE4F3983E8D
:1005C000D4F3869577956795B795F795E7959F5FEF
:1005D000C1F7FE2B880F911D9695879597F9089581
:0405E000F894FFCFBD
:00000001FF
