S00C00004C6162342E73726563D5
S11300000C9454000C9471000C9471000C947100C5
S11300100C9471000C9471000C9471000C94710098
S11300200C9471000C9471000C9471000C94710088
S11300300C9471000C9471000C9471000C94710078
S11300400C9471000C9471000C9471000C94710068
S11300500C9471000C9466010C9471000C94710062
S11300600C9471000C947100C200C500C800CC004F
S1130070D000D400D800DC00DF00E300E700EB0090
S1130080EF00F200F600FA001F0122012501290108
S11300902D013101350139013C0140014401480180
S11300A04C014F015301570111241FBECFEFD8E07B
S11300B0DEBFCDBF11E0A0E0B1E0E8E1F3E002C0B3
S11300C005900D92A031B107D9F721E0A0E1B1E08C
S11300D001C01D92A631B207E1F70E948F000C9473
S11300E08A010C940000ECE7F0E0108280818064C7
S11300F0808380818F778083808180628083EAE738
S1130100F0E01082808180688083808188608083B1
S11301108081876080838081806880830895F894DB
S113012087B18E7F87B987B18E6787B90E947300C4
S11301307894EAE7F0E08081806480838FE79EE32F
S11301400197F1F700C0000085B1886085B98091FE
S11301501401909115018F70992790931101809348
S11301601001FC01E050FF4F808188B9E09110013B
S1130170F0911101E031F10508F03FC0EC5CFF4F54
S11301800C94840185B185B938C085B185B935C071
S113019085B1806285B931C085B1806285B92DC0D1
S11301A085B1806285B929C085B1806285B925C0D1
S11301B085B1806285B921C085B185B91EC085B17C
S11301C0806285B91AC085B1806285B916C085B1CF
S11301D0806285B912C085B1806285B90EC085B1CF
S11301E085B90BC085B1806285B907C085B18062CD
S11301F085B903C085B1806285B985B1877F85B92A
S11302008FE79EE30197F1F700C0000085B1846099
S113021085B9E0911401F0911501F595E795F595EF
S1130220E795F595E795F595E795EF70FF27F0933A
S11302301301E0931201EC5BFF4F0C94840185B130
S113024085B938C085B185B935C085B1806285B9B5
S113025031C085B1806285B92DC085B1806285B910
S113026029C085B1806285B925C085B1806285B910
S113027021C085B185B91EC085B1806285B91AC017
S113028085B1806285B916C085B1806285B912C016
S113029085B1806285B90EC085B185B90BC085B1C1
S11302A0806285B907C085B1806285B903C085B114
S11302B0806285B9E0911201F0911301E050FF4F83
S11302C0808188B985B18B7F85B933CF1F920F9216
S11302D00FB60F9211248F939F93EF93FF93809106
S11302E0790090E09093150180931401EAE7F0E01F
S11302F0808180618083FF91EF919F918F910F9016
S11303000FBE0F901F901895EE0FFF1F0590F491EC
S10B0310E02D0994F894FFCFDD
S11303183F065B4F666D7D077F6F777C395E797129
S9030000FC
