:100000000C9434000C9446000C9446000C9446006A
:100010000C9446000C9446000C9446000C94460048
:100020000C9446000C9446000C9446000C94460038
:100030000C9446000C9446000C9446000C94460028
:100040000C9446000C9446000C9446000C94460018
:100050000C9446000C9448000C9446000C94460006
:100060000C9446000C94460011241FBECFEFD8E03C
:10007000DEBFCDBF21E0A0E0B1E001C01D92A43001
:10008000B207E1F70E9480000C94A0010C940000DC
:100090001F920F920FB60F9211248F93EF93FF933D
:1000A0008091790080930301EAE7F0E0808180612C
:1000B0008083FF91EF918F910F900FBE0F901F9053
:1000C0001895ECE7F0E087E080838081806480838E
:1000D00080818F778083808180628083EAE7F0E08F
:1000E00010828081806880838081886080838081A5
:1000F00087608083EEE7F0E08081816080830895EF
:10010000F89468E281E00E949D0068E280E00E942D
:10011000D5000E94610082E390E00E94120182E318
:1001200090E00E943701789482E390E00E941201EF
:1001300082E390E00E943701F7CF94B1926094B9C6
:10014000882331F0E0E8F0E08081806C808308C093
:10015000E0E8F0E080818068808380818F7B80830D
:10016000E0E8F0E0808182608083E1E8F0E0808177
:100170008861808380818D7F80838081846080839B
:10018000262F30E03093010120930001032E000C54
:10019000440B550B69E07DE380E090E00E945C0138
:1001A0003093870020938600089594B1946094B9A9
:1001B000882331F0E0E8F0E080818063808308C02C
:1001C000E0E8F0E080818062808380818F7E8083A0
:1001D000E0E8F0E0808180618083808188608083B6
:1001E000808182608083E1E8F0E080818C7F808381
:1001F000808184608083262F30E03093010120933A
:100200000001032E000C440B550B69E07DE380E0F8
:1002100090E00E945C0121503109309387002093C7
:1002200086000895CF93DF93EC0120910001309177
:100230000101032E000C440B550B69E07DE380E0C7
:1002400090E00E945C012150310941095109DE0111
:100250000E947E0124E630E040E050E00E945C0114
:100260003093890020938800DF91CF910895CF9338
:10027000DF93EC012091000130910101032E000C6D
:10028000440B550B69E07DE380E090E00E945C0147
:100290002150310941095109DE010E947E0124E605
:1002A00030E040E050E00E945C0130938B002093EE
:1002B0008A00DF91CF910895A1E21A2EAA1BBB1BE1
:1002C000FD010DC0AA1FBB1FEE1FFF1FA217B30722
:1002D000E407F50720F0A21BB30BE40BF50B661F38
:1002E000771F881F991F1A9469F7609570958095FC
:1002F00090959B01AC01BD01CF010895B7FF0C940F
:1003000086010E948601821B930B08950E94910131
:10031000A59F900DB49F900DA49F800D911D112459
:100320000895A29FB001B39FC001A39F700D811DCE
:100330001124911DB29F700D811D1124911D0895EE
:04034000F894FFCF5F
:00000001FF
