:100000000C9434000C943E000C943E000C943E0082
:100010000C943E000C943E000C943E000C943E0068
:100020000C943E000C943E000C943E000C943E0058
:100030000C943E000C943E000C943E000C943E0048
:100040000C943E000C943E000C943E000C943E0038
:100050000C943E000C943E000C943E000C943E0028
:100060000C943E000C943E0011241FBECFEFD8E04C
:10007000DEBFCDBF0E9440000C946E000C940000C7
:1000800084B18D7F84B985B1826085B984B18B7F5D
:1000900084B985B1846085B98FEF8AB980E01999F8
:1000A0000DC08F3F11F08F5F8BB92FEF34E39CE0D1
:1000B000215030409040E1F700C000001A99EFCF86
:1000C000882311F081508BB92FEF34E39CE021504D
:1000D00030409040E1F700C00000E1CFF894FFCF3E
:00000001FF
