S015000050726F796563746F46696E616C2E73726563D0
S11300000C9434000C9446000C9446000C94460066
S11300100C94D6020C9487010C9446000C94460070
S11300200C9446000C9446000C9446000C94460034
S11300300C9446000C9446000C9446000C94460024
S11300400C9446000C9446000C9446000C94460014
S11300500C9446000C9446000C9446000C94460004
S11300600C9446000C94460011241FBECFEFD8E038
S1130070DEBFCDBF21E0A0E0B1E001C01D92AA31F6
S1130080B207E1F70E94A6000C9405080C94000046
S1130090ECE7F0E080818064808380818F778083C7
S11300A080818F7D8083EAE7F0E0808187608083B0
S11300B0808180688083EEE7F0E0808187608083C0
S11300C00895ECE7F0E09081907F892B8083EAE744
S11300D0F0E080818064808380917A0086FDFCCF8B
S11300E080917800909179000895F999FECF92BD9E
S11300F081BD60BD8FB384608FBB8FB382608FBBC3
S11301000895F999FECF92BD81BD8FB381608FBBF5
S113011080B590E008958AB18E7F8AB98AB18260F1
S11301208AB91092C000E1ECF0E010828081886905
S11301308083E2ECF0E0108280818660808387E631
S113014090E09093C5008093C4000895F8948AB118
S1130150837E8AB98BB18C618BB987B18F7C87B967
S113016088B1806388B984B1806184B984B18160C5
S113017084B98AB180688AB9E8E6F0E08081846055
S11301808083ADE6B0E08C918C618C938081826039
S11301908083ECE6F0E08081806380830E944800E5
S11301A00E948B000E94670460E074E080E00E947B
S11301B0310460E074E080E00E9445057894809109
S11301C0080190910901892B09F070C085B1806103
S11301D085B985B18E7F85B98BB18F778BB980E076
S11301E00E946100BC0180E090E00E940A076093D5
S11301F016017093170180931801909319010E94BE
S1130200E1048FE39CE90197F1F700C0000081E06D
S11302100E946100BC0180E090E00E940A076093A4
S113022012017093130180931401909315010E949D
S113023013058FE39CE90197F1F700C0000082E009
S11302400E946100BC0180E090E00E940A07609374
S11302500E0170930F0180931001909311010E947D
S1130260DB06862F0E94C6058FE39CE90197F1F710
S113027000C0000083E00E946100BC0180E090E0C7
S11302800E940A0760930A0170930B0180930C018A
S113029090930D010E94DB06862F0E944B048FE38E
S11302A09CE90197F1F700C0000089CF8091080113
S11302B090910901019751F48BB18F778BB985B176
S11302C08F7E85B985B1816085B979CF8091080128
S11302D090910901029751F485B18F7E85B985B15A
S11302E08E7F85B98BB180688BB969CF8091080105
S11302F090910901039709F062CF85B18F7E85B98A
S113030085B18E7F85B98BB18F778BB958CF1F920A
S11303100F920FB60F9211242F933F934F935F9335
S11303206F937F938F939F93AF93BF93EF93FF93B9
S11303304C9914C08091080190910901029754F4DA
S1130340809108019091090101969093090180938D
S1130350080104C010920901109208014B9914C0BD
S11303608091060190910701039754F4809106014E
S1130370909107010196909307018093060104C0B0
S113038010920701109206014A9914C08091040149
S113039090910501039754F4809104019091050113
S11303A00196909305018093040104C01092050105
S11303B0109204018091060190910701019759F56B
S11303C060911601709117018091180190911901A3
S11303D00E94DB0680E090E00E94750060911201AB
S11303E07091130180911401909115010E94DB0614
S11303F081E090E00E94750060910E0170910F0100
S113040080911001909111010E94DB0682E090E03E
S11304100E947500BAC08091040190910501019772
S113042059F560911201709113018091140190911A
S113043015010E94DB0683E090E00E947500609144
S11304400E0170910F0180911001909111010E9491
S1130450DB0684E090E00E94750060910A017091CF
S11304600B0180910C0190910D010E94DB0685E047
S113047090E00E94750089C0809106019091070167
S11304800297E9F580E090E00E948100BC0180E0E1
S113049090E00E940A0760931601709317018093FD
S11304A01801909319010E94E10481E090E00E94F8
S11304B08100BC0180E090E00E940A076093120171
S11304C07093130180931401909315010E941305F6
S11304D082E090E00E948100BC0180E090E00E94F4
S11304E00A0760930E0170930F018093100190939B
S11304F011010E94DB06862F0E94C60546C080912A
S1130500040190910501029709F03FC083E090E057
S11305100E948100BC0180E090E00E940A07609381
S113052012017093130180931401909315010E949A
S1130530130584E090E00E948100BC0180E090E01B
S11305400E940A0760930E0170930F0180931001BB
S1130550909311010E94DB06862F0E94C60585E058
S113056090E00E948100BC0180E090E00E940A07B4
S113057060930A0170930B0180930C0190930D0119
S11305800E94DB06862F0E944B04FF91EF91BF91DE
S1130590AF919F918F917F916F915F914F913F9117
S11305A02F910F900FBE0F901F9018951F920F92CE
S11305B00FB60F9211242F933F934F935F936F9332
S11305C07F938F939F93AF93BF93EF93FF9334994C
S11305D014C08091020190910301039754F4809117
S11305E0020190910301019690930301809302010B
S11305F004C01092030110920201359914C0809135
S1130600000190910101039754F4809100019091AD
S113061001010196909301018093000104C010929E
S11306200101109200018091020190910301019750
S113063059F560910E0170910F0180911001909114
S113064011010E94DB0686E090E00E947500609133
S11306500A0170910B0180910C0190910D010E948F
S1130660DB0687E090E00E947500609116017091AE
S1130670170180911801909119010E94DB0688E00E
S113068090E00E947500DCC080910001909101010E
S11306900197C9F5609116017091170180911801B5
S11306A0909119010E94DB0689E090E00E94750098
S11306B060911201709113018091140190911501C0
S11306C00E94DB068AE090E00E94750060910E01B2
S11306D070910F0180911001909111010E94DB062D
S11306E08BE090E00E94750060910A0170910B010B
S11306F080910C0190910D010E94DB068CE090E04A
S11307000E9475009DC0809102019091030102979F
S1130710F1F586E090E00E948100BC0180E090E069
S11307200E940A0760930E0170930F0180931001D9
S1130730909311010E94DB06862F0E94C60587E074
S113074090E00E948100BC0180E090E00E940A07D2
S113075060930A0170930B0180930C0190930D0137
S11307600E94DB06862F0E944B0488E090E00E94E2
S11307708100BC0180E090E00E940A0760931601AA
S113078070931701809318019093190159C08091B7
S1130790000190910101029709F052C089E090E0B4
S11307A00E948100BC0180E090E00E940A076093EF
S11307B016017093170180931801909319010E94F8
S11307C0E1048AE090E00E948100BC0180E090E0B6
S11307D00E940A076093120170931301809314011D
S11307E0909315010E9413058BE090E00E94810014
S11307F0BC0180E090E00E940A0760930E017093B0
S11308000F0180931001909311010E94DB06862F43
S11308100E94C6058CE090E00E948100BC0180E04B
S113082090E00E940A0760930A0170930B01809381
S11308300C0190930D010E94DB06862F0E944B044D
S1130840FF91EF91BF91AF919F918F917F916F91A4
S11308505F914F913F912F910F900FBE0F901F907A
S113086018959AB190649AB994B5936094BD88230D
S113087021F084B5806C84BD03C084B5806884BDD8
S11308806115744021F485B5856085BD089585B5ED
S1130890816085BD0895682F70E080E090E00E943B
S11308A00C0720E030E04FE753E40E94690620E0A3
S11308B030E040EF51E40E94980720E030E040EC43
S11308C050E40E94FD050E94DB0667BD089584B1D3
S11308D0826084B984B1846084B9E0E8F0E080EA9D
S11308E08083808182608083E1E8F0E088E1808316
S11308F08081826080838FE39CE99093870080935A
S1130900860008954F925F926F927F92AF92BF924A
S1130910CF92DF92EF92FF920F931F93CF93DF93C7
S1130920CDB7DEB728970FB6F894DEBF0FBECDBFA4
S113093029013A01ED82FE820F8318870E94FC058B
S113094069837A838B839C83A6019501698D7A8D53
S11309508B8D9C8D0E94FC059B01AC0169817A8181
S11309608B819C810E94980769837A838B839C8303
S1130970A3019201C801B7010E94FC059B01AC01CF
S113098069817A818B819C810E9469069B01AC01FB
S1130990C601B5010E94FD0528960FB6F894DEBF86
S11309A00FBECDBFDF91CF911F910F91FF90EF90BC
S11309B0DF90CF90BF90AF907F906F905F904F90FB
S11309C00895AF92BF92CF92DF92EF92FF920F936E
S11309D01F9325E42F9326E92F931F921F920F2E26
S11309E0A12CB12CFAE7CF2EF4E4DF2EF02DE12C6C
S11309F0F12C00E814E420E030E0A9010E94820414
S1130A000F900F900F900F900E94DB067093890057
S1130A10609388001F910F91FF90EF90DF90CF902B
S1130A20BF90AF900895AF92BF92CF92DF92EF92B2
S1130A30FF920F931F9325E42F9326E92F931F9280
S1130A401F920F2EA12CB12CFAE7CF2EF4E4DF2E47
S1130A50F02DE12CF12C00E814E420E030E0A901B1
S1130A600E9482040F900F900F900F900E94DB065B
S1130A7070938B0060938A001F910F91FF90EF9009
S1130A80DF90CF90BF90AF90089594B1986094B9DF
S1130A90E0EBF0E0908193609083882321F08081E3
S1130AA0806C808305C0E0EBF0E080818068808307
S1130AB06115744031F4E1EBF0E08081876080835C
S1130AC00895E1EBF0E080818160808308954F9286
S1130AD05F926F927F92AF92BF92CF92DF92EF922A
S1130AE0FF920F931F93CF93DF93CDB7DEB7289771
S1130AF00FB6F894DEBF0FBECDBF29013A01ED82D7
S1130B00FE820F8318870E94FC0569837A838B8396
S1130B109C83A6019501698D7A8D8B8D9C8D0E9495
S1130B20FC059B01AC0169817A818B819C810E94C7
S1130B30980769837A838B839C83A3019201C801FC
S1130B40B7010E94FC059B01AC0169817A818B810C
S1130B509C810E9469069B01AC01C601B5010E94FB
S1130B60FD0528960FB6F894DEBF0FBECDBFDF910A
S1130B70CF911F910F91FF90EF90DF90CF90BF9096
S1130B80AF907F906F905F904F900895AF92BF9217
S1130B90CF92DF92EF92FF920F931F93682F70E032
S1130BA080E090E00E940A0722E42F9320E12F9333
S1130BB01F921F920F2EA12CB12CF0ECCF2EF0E43B
S1130BC0DF2EF02DE12CF12C0FE713E420E030E0D0
S1130BD0A9010E9467050F900F900F900F900E943B
S1130BE0DB066093B3001F910F91FF90EF90DF90AD
S1130BF0CF90BF90AF9008955058BB27AA270E946A
S1130C0014060C945E070E94500738F00E945707A0
S1130C1020F039F49F3F19F426F40C944D070EF498
S1130C20E095E7FB0C944707E92F0E946F0758F300
S1130C30BA17620773078407950720F079F4A6F5BD
S1130C400C9491070EF4E0950B2EBA2FA02D0B01F6
S1130C50B90190010C01CA01A0011124FF27591BFD
S1130C6099F0593F50F4503E68F11A16F040A22F03
S1130C70232F342F4427585FF3CF46953795279574
S1130C80A795F0405395C9F77EF41F16BA0B620B73
S1130C90730B840BBAF09150A1F0FF0FBB1F661FBA
S1130CA0771F881FC2F70EC0BA0F621F731F841FFD
S1130CB048F4879577956795B795F7959E3F08F023
S1130CC0B0CF9395880F08F09927EE0F97958795E5
S1130CD008950E947D060C945E070E94570758F001
S1130CE00E94500740F029F45F3F29F00C94470715
S1130CF051110C9492070C944D070E946F0768F3EE
S1130D009923B1F3552391F3951B550BBB27AA27C0
S1130D1062177307840738F09F5F5F4F220F331FFA
S1130D20441FAA1FA9F335D00E2E3AF0E0E832D0C2
S1130D3091505040E695001CCAF72BD0FE2F29D0C5
S1130D40660F771F881FBB1F261737074807AB0797
S1130D50B0E809F0BB0B802DBF01FF2793585F4F0C
S1130D603AF09E3F510578F00C9447070C94920793
S1130D705F3FE4F3983ED4F3869577956795B795EE
S1130D80F7959F5FC9F7880F911D9695879597F9F9
S1130D900895E1E0660F771F881FBB1F6217730772
S1130DA08407BA0720F0621B730B840BBA0BEE1F87
S1130DB088F7E09508950E94770788F09F5798F088
S1130DC0B92F9927B751B0F0E1F0660F771F881F4C
S1130DD0991F1AF0BA95C9F714C0B13091F00E9466
S1130DE09107B1E008950C949107672F782F882715
S1130DF0B85F39F0B93FCCF3869577956795B3958D
S1130E00D9F73EF490958095709561957F4F8F4FFB
S1130E109F4F0895E89409C097FB3EF49095809500
S1130E20709561957F4F8F4F9F4F9923A9F0F92FAC
S1130E3096E9BB279395F695879577956795B7952A
S1130E40F111F8CFFAF4BB0F11F460FF1BC06F5F10
S1130E507F4F8F4F9F4F16C0882311F096E911C022
S1130E60772321F09EE8872F762F05C0662371F043
S1130E7096E8862F70E060E02AF09A95660F771F57
S1130E80881FDAF7880F9695879597F9089597F94B
S1130E909F6780E870E060E008959FEF80EC08951C
S1130EA000240A9416161706180609060895002445
S1130EB00A9412161306140605060895092E0394BF
S1130EC0000C11F4882352F0BB0F40F4BF2B11F433
S1130ED060FF04C06F5F7F4F8F4F9F4F089557FD92
S1130EE09058440F551F59F05F3F71F04795880F94
S1130EF097FB991F61F09F3F79F08795089512162B
S1130F0013061406551FF2CF4695F1DF08C01616D6
S1130F1017061806991FF1CF869571056105089487
S1130F200895E894BB2766277727CB0197F908959E
S1130F300E94AB070C945E070E94500738F00E9491
S1130F40570720F0952311F00C9447070C944D0794
S1130F5011240C9492070E946F0770F3959FC1F3BC
S1130F60950F50E0551F629FF001729FBB27F00D53
S1130F70B11D639FAA27F00DB11DAA1F649F6627A8
S1130F80B00DA11D661F829F2227B00DA11D621FF7
S1130F90739FB00DA11D621F839FA00D611D221FB1
S1130FA0749F3327A00D611D231F849F600D211D95
S1130FB0822F762F6A2F11249F5750409AF0F1F018
S1130FC088234AF0EE0FFF1FBB1F661F771F881F81
S1130FD091505040A9F79E3F510580F00C9447076B
S1130FE00C9492075F3FE4F3983ED4F3869577958B
S1130FF06795B795F795E7959F5FC1F7FE2B880F27
S1111000911D9695879597F90895F894FFCF62
S9030000FC
